{
  "_format": "hh-sol-artifact-1",
  "contractName": "CertificateStorage",
  "sourceName": "contracts/CertificateStorage.sol",
  "abi": [
    {
      "anonymous": false,
      "inputs": [
        {
          "indexed": true,
          "internalType": "bytes32",
          "name": "transactionHash",
          "type": "bytes32"
        },
        {
          "indexed": false,
          "internalType": "string",
          "name": "hash",
          "type": "string"
        },
        {
          "indexed": false,
          "internalType": "uint256",
          "name": "timestamp",
          "type": "uint256"
        },
        {
          "indexed": true,
          "internalType": "address",
          "name": "issuer",
          "type": "address"
        }
      ],
      "name": "CertificateStored",
      "type": "event"
    },
    {
      "inputs": [
        {
          "internalType": "bytes32",
          "name": "_transactionHash",
          "type": "bytes32"
        }
      ],
      "name": "getCertificate",
      "outputs": [
        {
          "internalType": "string",
          "name": "hash",
          "type": "string"
        },
        {
          "internalType": "uint256",
          "name": "timestamp",
          "type": "uint256"
        },
        {
          "internalType": "address",
          "name": "issuer",
          "type": "address"
        }
      ],
      "stateMutability": "view",
      "type": "function"
    },
    {
      "inputs": [
        {
          "internalType": "string",
          "name": "_certificateHash",
          "type": "string"
        }
      ],
      "name": "storeCertificate",
      "outputs": [],
      "stateMutability": "nonpayable",
      "type": "function"
    },
    {
      "inputs": [
        {
          "internalType": "bytes32",
          "name": "_transactionHash",
          "type": "bytes32"
        },
        {
          "internalType": "string",
          "name": "_hash",
          "type": "string"
        }
      ],
      "name": "verifyCertificate",
      "outputs": [
        {
          "internalType": "bool",
          "name": "",
          "type": "bool"
        }
      ],
      "stateMutability": "view",
      "type": "function"
    }
  ],
  "bytecode": "0x6080604052348015600f57600080fd5b50610d368061001f6000396000f3fe608060405234801561001057600080fd5b50600436106100415760003560e01c80638984274914610046578063aaf4004014610076578063f333fe0814610092575b600080fd5b610060600480360381019061005b9190610672565b6100c4565b60405161006d91906106e9565b60405180910390f35b610090600480360381019061008b9190610704565b610234565b005b6100ac60048036038101906100a7919061074d565b610365565b6040516100bb93929190610853565b60405180910390f35b6000806000808581526020019081526020016000206040518060600160405290816000820180546100f4906108c0565b80601f0160208091040260200160405190810160405280929190818152602001828054610120906108c0565b801561016d5780601f106101425761010080835404028352916020019161016d565b820191906000526020600020905b81548152906001019060200180831161015057829003601f168201915b50505050508152602001600182015481526020016002820160009054906101000a900473ffffffffffffffffffffffffffffffffffffffff1673ffffffffffffffffffffffffffffffffffffffff1673ffffffffffffffffffffffffffffffffffffffff16815250509050826040516020016101e9919061092d565b604051602081830303815290604052805190602001208160000151604051602001610214919061092d565b604051602081830303815290604052805190602001201491505092915050565b600081423360405160200161024b939291906109ad565b60405160208183030381529060405280519060200120905060405180606001604052808381526020014281526020013373ffffffffffffffffffffffffffffffffffffffff1681525060008083815260200190815260200160002060008201518160000190816102bb9190610b92565b506020820151816001015560408201518160020160006101000a81548173ffffffffffffffffffffffffffffffffffffffff021916908373ffffffffffffffffffffffffffffffffffffffff1602179055509050503373ffffffffffffffffffffffffffffffffffffffff16817f13fca3f2ed7d06e677652eb64860b0d0102df416ede8a0fb633cd63ecde0a4ce8442604051610359929190610c64565b60405180910390a35050565b60606000806000806000868152602001908152602001600020604051806060016040529081600082018054610399906108c0565b80601f01602080910402602001604051908101604052809291908181526020018280546103c5906108c0565b80156104125780601f106103e757610100808354040283529160200191610412565b820191906000526020600020905b8154815290600101906020018083116103f557829003601f168201915b50505050508152602001600182015481526020016002820160009054906101000a900473ffffffffffffffffffffffffffffffffffffffff1673ffffffffffffffffffffffffffffffffffffffff1673ffffffffffffffffffffffffffffffffffffffff168152505090506000816000015151116104c5576040517f08c379a00000000000000000000000000000000000000000000000000000000081526004016104bc90610ce0565b60405180910390fd5b806000015181602001518260400151935093509350509193909250565b6000604051905090565b600080fd5b600080fd5b6000819050919050565b610509816104f6565b811461051457600080fd5b50565b60008135905061052681610500565b92915050565b600080fd5b600080fd5b6000601f19601f8301169050919050565b7f4e487b7100000000000000000000000000000000000000000000000000000000600052604160045260246000fd5b61057f82610536565b810181811067ffffffffffffffff8211171561059e5761059d610547565b5b80604052505050565b60006105b16104e2565b90506105bd8282610576565b919050565b600067ffffffffffffffff8211156105dd576105dc610547565b5b6105e682610536565b9050602081019050919050565b82818337600083830152505050565b6000610615610610846105c2565b6105a7565b90508281526020810184848401111561063157610630610531565b5b61063c8482856105f3565b509392505050565b600082601f8301126106595761065861052c565b5b8135610669848260208601610602565b91505092915050565b60008060408385031215610689576106886104ec565b5b600061069785828601610517565b925050602083013567ffffffffffffffff8111156106b8576106b76104f1565b5b6106c485828601610644565b9150509250929050565b60008115159050919050565b6106e3816106ce565b82525050565b60006020820190506106fe60008301846106da565b92915050565b60006020828403121561071a576107196104ec565b5b600082013567ffffffffffffffff811115610738576107376104f1565b5b61074484828501610644565b91505092915050565b600060208284031215610763576107626104ec565b5b600061077184828501610517565b91505092915050565b600081519050919050565b600082825260208201905092915050565b60005b838110156107b4578082015181840152602081019050610799565b60008484015250505050565b60006107cb8261077a565b6107d58185610785565b93506107e5818560208601610796565b6107ee81610536565b840191505092915050565b6000819050919050565b61080c816107f9565b82525050565b600073ffffffffffffffffffffffffffffffffffffffff82169050919050565b600061083d82610812565b9050919050565b61084d81610832565b82525050565b6000606082019050818103600083015261086d81866107c0565b905061087c6020830185610803565b6108896040830184610844565b949350505050565b7f4e487b7100000000000000000000000000000000000000000000000000000000600052602260045260246000fd5b600060028204905060018216806108d857607f821691505b6020821081036108eb576108ea610891565b5b50919050565b600081905092915050565b60006109078261077a565b61091181856108f1565b9350610921818560208601610796565b80840191505092915050565b600061093982846108fc565b915081905092915050565b6000819050919050565b61095f61095a826107f9565b610944565b82525050565b60008160601b9050919050565b600061097d82610965565b9050919050565b600061098f82610972565b9050919050565b6109a76109a282610832565b610984565b82525050565b60006109b982866108fc565b91506109c5828561094e565b6020820191506109d58284610996565b601482019150819050949350505050565b60008190508160005260206000209050919050565b60006020601f8301049050919050565b600082821b905092915050565b600060088302610a487fffffffffffffffffffffffffffffffffffffffffffffffffffffffffffffffff82610a0b565b610a528683610a0b565b95508019841693508086168417925050509392505050565b6000819050919050565b6000610a8f610a8a610a85846107f9565b610a6a565b6107f9565b9050919050565b6000819050919050565b610aa983610a74565b610abd610ab582610a96565b848454610a18565b825550505050565b600090565b610ad2610ac5565b610add818484610aa0565b505050565b5b81811015610b0157610af6600082610aca565b600181019050610ae3565b5050565b601f821115610b4657610b17816109e6565b610b20846109fb565b81016020851015610b2f578190505b610b43610b3b856109fb565b830182610ae2565b50505b505050565b600082821c905092915050565b6000610b6960001984600802610b4b565b1980831691505092915050565b6000610b828383610b58565b9150826002028217905092915050565b610b9b8261077a565b67ffffffffffffffff811115610bb457610bb3610547565b5b610bbe82546108c0565b610bc9828285610b05565b600060209050601f831160018114610bfc5760008415610bea578287015190505b610bf48582610b76565b865550610c5c565b601f198416610c0a866109e6565b60005b82811015610c3257848901518255600182019150602085019450602081019050610c0d565b86831015610c4f5784890151610c4b601f891682610b58565b8355505b6001600288020188555050505b505050505050565b60006040820190508181036000830152610c7e81856107c0565b9050610c8d6020830184610803565b9392505050565b7f4365727469666963617465206e6f7420666f756e640000000000000000000000600082015250565b6000610cca601583610785565b9150610cd582610c94565b602082019050919050565b60006020820190508181036000830152610cf981610cbd565b905091905056fea2646970667358221220abf662c7d7b35532c1bb2700773627fb5563b88aafc6ac9b24ce50443e44ebdf64736f6c634300081c0033",
  "linkReferences": {},
  "deployedLinkReferences": {}
}